{
  "_format": "hh-sol-artifact-1",
  "contractName": "GLRPresale",
  "sourceName": "contracts/presale.sol",
  "abi": [
    {
      "inputs": [
        {
          "internalType": "address",
          "name": "_tokenAddress",
          "type": "address"
        }
      ],
      "stateMutability": "nonpayable",
      "type": "constructor"
    },
    {
      "inputs": [],
      "name": "buyTokens",
      "outputs": [],
      "stateMutability": "payable",
      "type": "function"
    },
    {
      "inputs": [],
      "name": "owner",
      "outputs": [
        {
          "internalType": "address",
          "name": "",
          "type": "address"
        }
      ],
      "stateMutability": "view",
      "type": "function"
    },
    {
      "inputs": [],
      "name": "price",
      "outputs": [
        {
          "internalType": "uint256",
          "name": "",
          "type": "uint256"
        }
      ],
      "stateMutability": "view",
      "type": "function"
    },
    {
      "inputs": [],
      "name": "soldTokens",
      "outputs": [
        {
          "internalType": "uint256",
          "name": "",
          "type": "uint256"
        }
      ],
      "stateMutability": "view",
      "type": "function"
    },
    {
      "inputs": [],
      "name": "tokenAddress",
      "outputs": [
        {
          "internalType": "address",
          "name": "",
          "type": "address"
        }
      ],
      "stateMutability": "view",
      "type": "function"
    },
    {
      "inputs": [],
      "name": "withdrawETH",
      "outputs": [],
      "stateMutability": "nonpayable",
      "type": "function"
    },
    {
      "inputs": [
        {
          "internalType": "uint256",
          "name": "amount",
          "type": "uint256"
        }
      ],
      "name": "withdrawTokens",
      "outputs": [],
      "stateMutability": "nonpayable",
      "type": "function"
    },
    {
      "stateMutability": "payable",
      "type": "receive"
    }
  ],
  "bytecode": "0x60806040526509184e72a00060025534801561001a57600080fd5b50604051610b7b380380610b7b833981810160405281019061003c9190610126565b336000806101000a81548173ffffffffffffffffffffffffffffffffffffffff021916908373ffffffffffffffffffffffffffffffffffffffff16021790555080600160006101000a81548173ffffffffffffffffffffffffffffffffffffffff021916908373ffffffffffffffffffffffffffffffffffffffff16021790555050610153565b600080fd5b600073ffffffffffffffffffffffffffffffffffffffff82169050919050565b60006100f3826100c8565b9050919050565b610103816100e8565b811461010e57600080fd5b50565b600081519050610120816100fa565b92915050565b60006020828403121561013c5761013b6100c3565b5b600061014a84828501610111565b91505092915050565b610a19806101626000396000f3fe6080604052600436106100745760003560e01c80639d76ea581161004e5780639d76ea5814610107578063a035b1fe14610132578063d0febe4c1461015d578063e086e5ec1461016757610083565b8063315a095d146100885780635ed9ebfc146100b15780638da5cb5b146100dc57610083565b366100835761008161017e565b005b600080fd5b34801561009457600080fd5b506100af60048036038101906100aa9190610648565b61036e565b005b3480156100bd57600080fd5b506100c66104c0565b6040516100d39190610684565b60405180910390f35b3480156100e857600080fd5b506100f16104c6565b6040516100fe91906106e0565b60405180910390f35b34801561011357600080fd5b5061011c6104ea565b60405161012991906106e0565b60405180910390f35b34801561013e57600080fd5b50610147610510565b6040516101549190610684565b60405180910390f35b61016561017e565b005b34801561017357600080fd5b5061017c610516565b005b600034116101c1576040517f08c379a00000000000000000000000000000000000000000000000000000000081526004016101b890610758565b60405180910390fd5b6000600254346101d191906107d6565b905080600160009054906101000a900473ffffffffffffffffffffffffffffffffffffffff1673ffffffffffffffffffffffffffffffffffffffff166370a08231306040518263ffffffff1660e01b815260040161022f91906106e0565b602060405180830381865afa15801561024c573d6000803e3d6000fd5b505050506040513d601f19601f82011682018060405250810190610270919061081c565b10156102b1576040517f08c379a00000000000000000000000000000000000000000000000000000000081526004016102a890610895565b60405180910390fd5b600160009054906101000a900473ffffffffffffffffffffffffffffffffffffffff1673ffffffffffffffffffffffffffffffffffffffff1663a9059cbb33836040518363ffffffff1660e01b815260040161030e9291906108b5565b6020604051808303816000875af115801561032d573d6000803e3d6000fd5b505050506040513d601f19601f820116820180604052508101906103519190610916565b5080600360008282546103649190610943565b9250508190555050565b60008054906101000a900473ffffffffffffffffffffffffffffffffffffffff1673ffffffffffffffffffffffffffffffffffffffff163373ffffffffffffffffffffffffffffffffffffffff16146103fc576040517f08c379a00000000000000000000000000000000000000000000000000000000081526004016103f3906109c3565b60405180910390fd5b600160009054906101000a900473ffffffffffffffffffffffffffffffffffffffff1673ffffffffffffffffffffffffffffffffffffffff1663a9059cbb60008054906101000a900473ffffffffffffffffffffffffffffffffffffffff16836040518363ffffffff1660e01b81526004016104799291906108b5565b6020604051808303816000875af1158015610498573d6000803e3d6000fd5b505050506040513d601f19601f820116820180604052508101906104bc9190610916565b5050565b60035481565b60008054906101000a900473ffffffffffffffffffffffffffffffffffffffff1681565b600160009054906101000a900473ffffffffffffffffffffffffffffffffffffffff1681565b60025481565b60008054906101000a900473ffffffffffffffffffffffffffffffffffffffff1673ffffffffffffffffffffffffffffffffffffffff163373ffffffffffffffffffffffffffffffffffffffff16146105a4576040517f08c379a000000000000000000000000000000000000000000000000000000000815260040161059b906109c3565b60405180910390fd5b60008054906101000a900473ffffffffffffffffffffffffffffffffffffffff1673ffffffffffffffffffffffffffffffffffffffff166108fc479081150290604051600060405180830381858888f1935050505015801561060a573d6000803e3d6000fd5b50565b600080fd5b6000819050919050565b61062581610612565b811461063057600080fd5b50565b6000813590506106428161061c565b92915050565b60006020828403121561065e5761065d61060d565b5b600061066c84828501610633565b91505092915050565b61067e81610612565b82525050565b60006020820190506106996000830184610675565b92915050565b600073ffffffffffffffffffffffffffffffffffffffff82169050919050565b60006106ca8261069f565b9050919050565b6106da816106bf565b82525050565b60006020820190506106f560008301846106d1565b92915050565b600082825260208201905092915050565b7f45544820676f6e64657200000000000000000000000000000000000000000000600082015250565b6000610742600a836106fb565b915061074d8261070c565b602082019050919050565b6000602082019050818103600083015261077181610735565b9050919050565b7f4e487b7100000000000000000000000000000000000000000000000000000000600052601260045260246000fd5b7f4e487b7100000000000000000000000000000000000000000000000000000000600052601160045260246000fd5b60006107e182610612565b91506107ec83610612565b9250826107fc576107fb610778565b5b828204905092915050565b6000815190506108168161061c565b92915050565b6000602082840312156108325761083161060d565b5b600061084084828501610807565b91505092915050565b7f4b6f6e7472617474612079657465726c6920746f6b656e20796f6b0000000000600082015250565b600061087f601b836106fb565b915061088a82610849565b602082019050919050565b600060208201905081810360008301526108ae81610872565b9050919050565b60006040820190506108ca60008301856106d1565b6108d76020830184610675565b9392505050565b60008115159050919050565b6108f3816108de565b81146108fe57600080fd5b50565b600081519050610910816108ea565b92915050565b60006020828403121561092c5761092b61060d565b5b600061093a84828501610901565b91505092915050565b600061094e82610612565b915061095983610612565b9250828201905080821115610971576109706107a7565b5b92915050565b7f53656e2073616869626920646567696c73696e00000000000000000000000000600082015250565b60006109ad6013836106fb565b91506109b882610977565b602082019050919050565b600060208201905081810360008301526109dc816109a0565b905091905056fea2646970667358221220c8f8344f5999988e0fdb81fe1556fcf6a551c380b63a267bf221a347d481ba6464736f6c63430008140033",
  "linkReferences": {},
  "deployedLinkReferences": {}
}